:020000040802F0
:10000000F8FF04205DC30208C1C00208D5C0020881
:10001000E5C00208F5C0020805C1020800000000A2
:1000200000000000000000000000000091B503087F
:1000300015C1020800000000D1B7030839B8030851
:10004000ADC30208ADC30208ADC30208ADC30208C8
:10005000ADC30208ADC3020829C1020837C10208B6
:1000600045C1020853C10208ADC30208ADC302086E
:10007000ADC3020861C10208ADC30208ADC30208E6
:1000800079C10208ADC30208ADC30208ADC30208BE
:1000900091C10208ADC30208ADC30208A5C10208A0
:1000A000ADC30208D1C10208ADC30208ADC3020846
:1000B000ADC30208ADC30208ADC30208EDC102081A
:1000C00001C20208ADC30208ADC30208ADC30208F5
:1000D000ADC3020815C202082DC20208ADC3020852
:1000E00045C20208ADC30208ADC30208ADC3020891
:1000F000ADC30208ADC30208ADC302086DC2020859
:10010000ADC30208ADC30208ADC3020881C2020834
:1001100095C20208ADC30208ADC30208ADC3020810
:10012000ADC20208ADC30208C1C20208ADC30208D5
:10013000ADC30208ADC30208ADC30208ADC30208D7
:10014000ADC30208ADC30208ADC30208ADC30208C7
:10015000ADC30208ADC30208ADC30208ADC30208B7
:10016000ADC30208ADC30208ADC30208ADC30208A7
:10017000ADC30208ADC3020800000000ADC3020811
:10018000ADC30208ADC30208ADC30208ADC3020887
:10019000ADC30208ADC3020800000000ADC30208F1
:1001A000ADC30208ADC3020800000000000000005B
:1001B000ADC302080000000000000000ADC302084B
:1001C000ADC30208ADC30208ADC30208ADC3020847
:0801D000ADC30208ADC3020833
:1001E00010B5054C237833B9044B13B10448AFF371
:1001F00000800123237010BD98040020000000003F
:10020000EC34040808B5034B1BB103490348AFF3B2
:10021000008008BD000000009C040020EC340408AD
:1002200010F8012B11F8013B012A28BF9A42F7D0A0
:10023000D01A7047034613F8012B002AFBD1181A75
:1002400001387047000000000000000000000000BE
:1002500001F0FF01102A2BDB10F0070F08D010F877
:10026000013B013A8B422DD010F0070F42B3F6D17B
:10027000F0B441EA012141EA014122F007047FF094
:1002800000070023F0E80256083C85EA010586EAEB
:10029000010685FA47F5A3FA87F586FA47F6A5FA27
:1002A00087F68EB9EED1F0BC01F0FF0102F0070233
:1002B00032B110F8013B013A83EA010313B1F8D1DE
:1002C0000020704701387047002D06BF35460338BF
:1002D000073815F0010F07D1013015F4807F02BFF8
:1002E000013015F4C03F0130F0BC0138704700BF49
:1002F00081F0004102E000BF83F0004330B54FEAD7
:1003000041044FEA430594EA050F08BF90EA020F43
:100310001FBF54EA000C55EA020C7FEA645C7FEAD6
:10032000655C00F0E2804FEA5454D4EB5555B8BFF9
:100330006D420CDD2C4480EA020281EA030382EA6A
:10034000000083EA010180EA020281EA0303362DFC
:1003500088BF30BD11F0004F4FEA01314FF4801CCF
:100360004CEA113102D0404261EB410113F0004FE1
:100370004FEA03334CEA133302D0524263EB430398
:1003800094EA050F00F0A780A4F10104D5F1200E36
:100390000DDB02FA0EFC22FA05F2801841F1000191
:1003A00003FA0EF2801843FA05F359410EE0A5F165
:1003B00020050EF1200E012A03FA0EFC28BF4CF096
:1003C000020C43FA05F3C01851EBE37101F000454C
:1003D00007D54FF0000EDCF1000C7EEB00006EEB59
:1003E0000101B1F5801F1BD3B1F5001F0CD34908E3
:1003F0005FEA30004FEA3C0C04F101044FEA44523A
:1004000012F5800F80F09A80BCF1004F08BF5FEAC0
:10041000500C50F1000041EB045141EA050130BDA0
:100420005FEA4C0C404141EB010111F4801FA4F143
:100430000104E9D191F0000F04BF01460020B1FA98
:1004400081F308BF2033A3F10B03B3F120020CDAD0
:100450000C3208DD02F1140CC2F10C0201FA0CF0AE
:1004600021FA02F10CE002F11402D8BFC2F1200C13
:1004700001FA02F120FA0CFCDCBF41EA0C019040C9
:10048000E41AA2BF01EB0451294330BD6FEA040412
:100490001F3C1CDA0C340EDC04F11404C4F12002FD
:1004A00020FA04F001FA02F340EA030021FA04F30F
:1004B00045EA030130BDC4F10C04C4F1200220FA66
:1004C00002F001FA04F340EA0300294630BD21FAA4
:1004D00004F0294630BD94F0000F83F4801306BF6A
:1004E00081F480110134013D4EE77FEA645C18BF5E
:1004F0007FEA655C29D094EA050F08BF90EA020FF5
:1005000005D054EA000C04BF1946104630BD91EAEC
:10051000030F1EBF0021002030BD5FEA545C05D1EF
:100520004000494128BF41F0004130BD14F580042E
:100530003CBF01F5801130BD01F0004545F0FE41A2
:1005400041F470014FF0000030BD7FEA645C1ABFD7
:10055000194610467FEA655C1CBF0B46024650EA0E
:10056000013406BF52EA033591EA030F41F400213A
:1005700030BD00BF90F0000F04BF0021704730B5C0
:100580004FF4806404F132044FF000054FF0000195
:1005900050E700BF90F0000F04BF0021704730B556
:1005A0004FF4806404F1320410F0004548BF40422B
:1005B0004FF000013EE700BF42004FEAE2014FEA80
:1005C00031014FEA02701FBF12F07F4393F07F4F5B
:1005D00081F06051704732F07F4208BF704793F05E
:1005E0007F4F04BF41F40021704730B54FF4607471
:1005F00001F0004521F000411CE700BF50EA010274
:1006000008BF704730B54FF000050AE050EA01021C
:1006100008BF704730B511F0004502D5404261EB8C
:1006200041014FF4806404F132045FEA915C3FF4CD
:10063000D8AE4FF003025FEADC0C18BF03325FEA6A
:10064000DC0C18BF033202EBDC02C2F1200300FA1B
:1006500003FC20FA02F001FA03FE40EA0E0021FA40
:1006600002F11444BDE600BF70B54FF0FF0C4CF42E
:10067000E06C1CEA11541DBF1CEA135594EA0C0FE0
:1006800095EA0C0F00F0DEF82C4481EA030621EA1B
:100690004C5123EA4C5350EA013518BF52EA033556
:1006A00041F4801143F4801338D0A0FB02CE4FF008
:1006B0000005E1FB02E506F00042E0FB03E54FF038
:1006C0000006E1FB03569CF0000F18BF4EF0010E30
:1006D000A4F1FF04B6F5007F64F5407404D25FEA2C
:1006E0004E0E6D4146EB060642EAC62141EA5551DF
:1006F0004FEAC52040EA5E504FEACE2EB4F1FD0C21
:1007000088BFBCF5E06F1ED8BEF1004F08BF5FEA9E
:10071000500E50F1000041EB045170BD06F0004650
:1007200046EA010140EA020081EA0301B4EB5C04FD
:10073000C2BFD4EB0C0541EA045170BD41F48011F5
:100740004FF0000E013C00F3AB8014F1360FDEBF1A
:10075000002001F0004170BDC4F10004203C35DAF6
:100760000C341BDC04F11404C4F1200500FA05F379
:1007700020FA04F001FA05F240EA020001F000421A
:1007800021F0004110EBD37021FA04F642EB060190
:100790005EEA430E08BF20EAD37070BDC4F10C04BA
:1007A000C4F1200500FA04F320FA05F001FA04F27E
:1007B00040EA020001F0004110EBD37041F100016A
:1007C0005EEA430E08BF20EAD37070BDC4F1200575
:1007D00000FA05F24EEA020E20FA04F301FA05F2DD
:1007E00043EA020321FA04F001F0004121FA04F285
:1007F00020EA020000EBD3705EEA430E08BF20EA55
:10080000D37070BD94F0000F0FD101F0004640008E
:1008100041EB010111F4801F08BF013CF7D041EA10
:10082000060195F0000F18BF704703F00046520014
:1008300043EB030313F4801F08BF013DF7D043EAE5
:100840000603704794EA0C0F0CEA135518BF95EA9B
:100850000C0F0CD050EA410618BF52EA4306D1D122
:1008600081EA030101F000414FF0000070BD50EA41
:10087000410606BF1046194652EA430619D094EACB
:100880000C0F02D150EA013613D195EA0C0F05D1B5
:1008900052EA03361CBF104619460AD181EA030109
:1008A00001F0004141F0FE4141F470014FF00000C1
:1008B00070BD41F0FE4141F4780170BD70B54FF05C
:1008C000FF0C4CF4E06C1CEA11541DBF1CEA1355DC
:1008D00094EA0C0F95EA0C0F00F0A7F8A4EB0504BE
:1008E00081EA030E52EA03354FEA013100F08880B5
:1008F0004FEA03334FF0805545EA131343EA12637E
:100900004FEA022245EA111545EA10654FEA002632
:100910000EF000419D4208BF964244F1FD0404F5EB
:10092000407402D25B084FEA3202B61A65EB030547
:100930005B084FEA32024FF480104FF4002CB6EB04
:10094000020E75EB030E22BFB61A754640EA0C0084
:100950005B084FEA3202B6EB020E75EB030E22BFC4
:10096000B61A754640EA5C005B084FEA3202B6EB05
:10097000020E75EB030E22BFB61A754640EA9C00C4
:100980005B084FEA3202B6EB020E75EB030E22BF94
:10099000B61A754640EADC0055EA060E18D04FEA52
:1009A000051545EA16754FEA06164FEAC30343EAF2
:1009B00052734FEAC2025FEA1C1CC0D111F4801FBF
:1009C0000BD141EA00014FF000004FF0004CB6E7B8
:1009D00011F4801F04BF01430020B4F1FD0C88BF57
:1009E000BCF5E06F3FF6AFAEB5EB030C04BFB6EB62
:1009F000020C5FEA500C50F1000041EB045170BD55
:100A00000EF0004E4EEA113114EB5C04C2BFD4EB81
:100A10000C0541EA045170BD41F480114FF0000E05
:100A2000013C90E645EA060E8DE60CEA135594EA81
:100A30000C0F08BF95EA0C0F3FF43BAF94EA0C0F84
:100A40000AD150EA01347FF434AF95EA0C0F7FF4F9
:100A500025AF104619462CE795EA0C0F06D152EA4D
:100A600003353FF4FDAE1046194622E750EA410631
:100A700018BF52EA43067FF4C5AE50EA41047FF442
:100A80000DAF52EA43057FF4EBAE12E74FF0FF3CA7
:100A900006E000BF4FF0010C02E000BF4FF0010C78
:100AA0004DF804CD4FEA410C7FEA6C5C4FEA430CF1
:100AB00018BF7FEA6C5C1BD001B050EA410C0CBF40
:100AC00052EA430C91EA030F02BF90EA020F0020A2
:100AD000704710F1000F91EA030F58BF994208BF09
:100AE00090422CBFD8176FEAE37040F001007047C6
:100AF0004FEA410C7FEA6C5C02D150EA013C07D11D
:100B00004FEA430C7FEA6C5CD6D152EA033CD3D067
:100B10005DF8040B704700BF8446104662468C4661
:100B20001946634600E000BF01B5FFF7B7FF002894
:100B300048BF10F1000F01BD4DF808EDFFF7F4FFBD
:100B40000CBF012000205DF808FB00BF4DF808ED48
:100B5000FFF7EAFF34BF012000205DF808FB00BF6B
:100B60004DF808EDFFF7E0FF94BF012000205DF88D
:100B700008FB00BF4DF808EDFFF7CEFF94BF012042
:100B800000205DF808FB00BF4DF808EDFFF7C4FF3B
:100B900034BF012000205DF808FB00BF4FEA410C84
:100BA0007FEA6C5C02D150EA013C0AD14FEA430C67
:100BB0007FEA6C5C02D152EA033C02D14FF00000A4
:100BC00070474FF0010070474FEA410212F50012E2
:100BD00015D211D56FF47873B3EB625212D94FEA84
:100BE000C12343F0004343EA505311F0004F23FA6E
:100BF00002F018BF404270474FF00000704750EAC3
:100C0000013005D111F0004008BF6FF0004070477F
:100C10004FF00000704700BF4A0011D212F50012D9
:100C200011D20DD56FF47873B3EB62520ED44FEA44
:100C3000C12343F0004343EA505323FA02F07047C4
:100C40004FF00000704750EA013002D14FF0FF3002
:100C500070474FF0000070474FEA4102B2F1E043A5
:100C600024BFB3F5001CDCF1FE5C0DD901F0004C93
:100C70004FEAC0024CEA5070B2F1004F40EB8300E3
:100C800008BF20F00100704711F0804F21D113F10F
:100C90003872BCBF01F00040704741F480114FEA48
:100CA0005252C2F11802C2F1200C10FA0CF320FAD1
:100CB00002F018BF40F001004FEAC1234FEAD323EE
:100CC00003FA0CFC40EA0C0023FA02F34FEA430358
:100CD000CCE77FEA625307D150EA01331EBF4FF0E1
:100CE000FE4040F44000704701F0004040F0FE40FC
:100CF00040F40000704700BF53B94AB9002908BF4B
:100D000000281CBF4FF0FF314FF0FF3000F094B9C6
:100D1000ADF1080C6DE904CE00F028F8DDF804E030
:100D2000DDE9022304B07047D0B500220D4B064622
:100D30000F46FFF799FCFFF76FFF0446FFF71AFC19
:100D40000022094BFFF790FC02460B46304639461D
:100D5000FFF7D2FAFFF760FF00222346104319463F
:100D6000D0BD00BF0000F03D0000F0412DE9F0478C
:100D7000089E04468846002B4BD18A42154667D907
:100D8000B2FA82F24AB1C2F1200701FA02F320FA64
:100D900007F7954047EA030894404FEA154E230CA5
:100DA000B8FBFEF71FFA85FC0EFB178843EA0843E1
:100DB00007FB0CF1994209D9EB1807F1FF3080F0DD
:100DC0001B81994240F21881023F2B445B1AA4B266
:100DD000B3FBFEF00EFB103344EA034400FB0CFCB3
:100DE000A44509D92C1900F1FF3380F00781A445EF
:100DF00040F2048102382C4440EA0740A4EB0C0482
:100E000000271EB1D4400023C6E900433946BDE89F
:100E1000F0878B4209D9002E00F0EB800027C6E94D
:100E2000000138463946BDE8F087B3FA83F7002F52
:100E300047D18B4202D3824200F2FA80841A61EBDE
:100E4000030301209846002EE0D0C6E90048DDE704
:100E500002B9FFDEB2FA82F2002A40F08F80491B0D
:100E60004FEA154E1FFA85F80127B1FBFEFC230C53
:100E70000EFB1C1143EA014308FB0CF1994207D910
:100E8000EB180CF1FF3002D2994200F2CD8084467B
:100E9000591AA3B2B1FBFEF00EFB101443EA04444E
:100EA00008FB00F8A04507D92C1900F1FF3302D246
:100EB000A04500F2B6801846A4EB080440EA0C40B6
:100EC0009FE7C7F1200CBB4022FA0CFE4EEA030E4E
:100ED00001FA07F420FA0CF521FA0CF34FEA1E4848
:100EE0002543B3FBF8F92C0C08FB19331FFA8EFAD3
:100EF00044EA034309FB0AF49C4202FA07F200FAAF
:100F000007F10BD91EEB030309F1FF3080F0878056
:100F10009C4240F28480A9F1020973441B1BADB2CC
:100F2000B3FBF8F008FB103345EA034400FB0AFA70
:100F3000A24508D91EEB040400F1FF336BD2A24591
:100F400069D90238744440EA0940A0FB0289A4EB45
:100F50000A044C45C2464B4654D351D0002E69D0AA
:100F6000B1EB0A0564EB030404FA0CFCFD40FC4001
:100F70004CEA0505C6E90054002747E7C2F1200303
:100F800020FA03F7954001FA02F021FA03F34FEA41
:100F9000154E3843010CB3FBFEF71FFA85F80EFB24
:100FA000173341EA034107FB08F38B4204FA02F4CA
:100FB00007D9691807F1FF3C2FD28B422DD9023F88
:100FC0002944CB1A81B2B3FBFEF00EFB103341EA89
:100FD000034100FB08F38B4207D9691800F1FF3C7D
:100FE00017D28B4215D902382944C91A40EA07475B
:100FF0003BE73746304609E70746E7E61846FBE693
:101000004145ABD2B8EB020A69EB0E020138134638
:10101000A4E76046E9E7184695E76746D1E78146C9
:101020007CE702382C4447E7ACF1020C2B442FE755
:10103000384608E73746E9E6704700BF80B500AF9D
:101040003222034903480BF05BFA00BF80BD00BFAA
:10105000B80400200087002080B584B000AF78601D
:101060000023BB600023FB810AE0FB890F4A32F8B2
:1010700013301A46BB681344BB60FB890133FB8104
:10108000FB89182BF1D9BB68094AA2FB0323DB08B3
:10109000BB60BB689BB21A464FF47A71054800F0FA
:1010A00057F800BF1037BD4680BD00BFB804002010
:1010B0001F85EB511C05002080B584B000AF78601F
:1010C0000023BB601823FB810AE0FB891A4A32F82F
:1010D00013301A46BB681344BB60FB890133FB81A4
:1010E000FB89312BF1D9BB68144AA2FB0323DB082F
:1010F000BB60BB689BB21A464FF47A71104800F08F
:1011000027F80346BB60BB6807EE903AF8EE677AB3
:101110009FED0C7A27EE877ADFED0B6AC7EE267A11
:10112000FCEEE77A17EE903A9AB2084B1A8000BFAD
:101130001037BD4680BD00BFB80400201F85EB51AD
:101140001C0500200040834500F07F45B4040020CA
:1011500080B483B000AF78600B467B8013463B8041
:101160001C4B1B681C4A1268520079680A4412889A
:101170009A1A3B881344174A1360174B1B685B008D
:101180007A6813443A881A80134B1B680133124A59
:1011900013607A88104B1B689A4202D80E4B0022CB
:1011A0001A600E4B1B887A889A4205D90B4B1B8814
:1011B00001339AB2094B1A80064B1B68074A128802
:1011C000B3FBF2F39BB218460C37BD465DF8047BC7
:1011D000704700BFEC0C0020F00C0020F40C002045
:1011E00080B582B000AF0C4B1B681B6803F0100386
:1011F000102B0CD100237B60074B1B681B687B60A6
:10120000054B1B685B687B607B6801F023F900BFBE
:101210000837BD4680BD00BF9888002080B500AF6C
:101220009A4B1B681B6803F00803002B00F0BC817D
:10123000964B1B681A46964B9A4260D9934B1B6893
:10124000944A934257D0914B1B68934A934250D093
:101250008E4B1B68914A934249D08C4B1B68904A35
:10126000934242D0894B1B688E4A93423AD0874BB7
:101270001B688D4A934232D0844B1B688B4A934241
:101280002AD0824B1B688A4A934222D07F4B1B682C
:10129000884A93421AD07D4B1B68874A934212D0EA
:1012A0007A4B1B68854A93420AD0784B1B68844A64
:1012B000934202D14FF480131EE04FF080631BE095
:1012C0004FF4801318E04FF4801315E04FF48013AF
:1012D00012E04FF480630FE04FF480630CE04FF4B2
:1012E000806309E04FF4806306E0102304E01023DC
:1012F00002E0102300E01023724AD36050E1634BF8
:101300001B681A46704B9A4260D9604B1B68614A51
:10131000934257D05D4B1B685F4A934250D05B4B62
:101320001B685E4A934249D0584B1B685C4A934203
:1013300042D0564B1B685B4A93423AD0534B1B68D2
:10134000594A934232D0514B1B68584A93422AD093
:101350004E4B1B68564A934222D04C4B1B68554A51
:1013600093421AD0494B1B68534A934212D0474BC1
:101370001B68524A93420AD0444B1B68504A93421E
:1013800002D14FF480131EE04FF080631BE04FF456
:10139000801318E04FF4801315E04FF4801312E02F
:1013A0004FF480630FE04FF480630CE04FF48063F0
:1013B00009E04FF4806306E0102304E0102302E00C
:1013C000102300E010233F4A9360E9E02F4B1B6895
:1013D0001A463E4B9A4240F283802C4B1B682D4AA2
:1013E000934279D0294B1B682B4A934272D0274BEA
:1013F0001B682A4A93426BD0244B1B68284A9342AD
:1014000042D0224B1B68274A93423AD01F4B1B689D
:10141000254A934232D01D4B1B68244A93422AD05E
:101420001A4B1B68224A934222D0184B1B68214A50
:1014300093421AD0154B1B681F4A934212D0134B8C
:101440001B681E4A93420AD0104B1B681C4A9342E9
:1014500002D14FF4801340E04FF080633DE04FF441
:1014600080133AE04FF4801337E04FF4801334E0F8
:101470004FF4806331E04FF480632EE04FF48063DB
:101480002BE04FF4806328E0102326E064840020E2
:1014900058640240106002401064024070600240D4
:1014A0007064024028600240286402408860024064
:1014B000886402404060024040640240A0600240F4
:1014C000A064024000640240B860024058600240DC
:1014D000102302E0102300E010239B4AD3605FE05A
:1014E0009A4B1B689A4A934257D0984B1B68994A6B
:1014F000934250D0954B1B68974A934249D0934BE7
:101500001B68964A934242D0904B1B68944A934280
:101510003AD08E4B1B68934A934232D08B4B1B6858
:10152000914A93422AD0894B1B68904A934222D019
:10153000864B1B688E4A93421AD0844B1B688D4A97
:10154000934212D0814B1B688B4A93420AD07F4B47
:101550001B688A4A934202D14FF480131EE04FF079
:1015600080631BE04FF4801318E04FF4801315E004
:101570004FF4801312E04FF480630FE04FF4806368
:101580000CE04FF4806309E04FF4806306E0102321
:1015900004E0102302E0102300E010236A4A936065
:1015A00000F058FF00F00ABF684B1B681B6803F08F
:1015B0001003002B00F0BD81644B1B681A46704B72
:1015C0009A4260D9614B1B68614A934257D05F4B86
:1015D0001B68604A934250D05C4B1B685E4A934242
:1015E00049D05A4B1B685D4A934242D0574B1B6807
:1015F0005B4A93423AD0554B1B685A4A934232D0C9
:10160000524B1B68584A93422AD0504B1B68574A8A
:10161000934222D04D4B1B68554A93421AD04B4BF4
:101620001B68544A934212D0484B1B68524A93425B
:101630000AD0464B1B68514A934202D14FF4001323
:101640001EE04FF000631BE04FF4001318E04FF46E
:10165000001315E04FF4001312E04FF400630FE0A5
:101660004FF400630CE04FF4006309E04FF40063B3
:1016700006E0202304E0202302E0202300E02023D2
:10168000404AD36051E1314B1B681A463E4B9A42A7
:1016900040F284802D4B1B682D4A93427AD02B4B0D
:1016A0001B682C4A934273D0284B1B682A4A9342EA
:1016B0006CD0264B1B68294A934242D0234B1B68AF
:1016C000274A93423AD0214B1B68264A934232D094
:1016D0001E4B1B68244A93422AD01C4B1B68234A8A
:1016E000934222D0194B1B68214A93421AD0174BC0
:1016F0001B68204A934212D0144B1B681E4A934227
:101700000AD0124B1B681D4A934202D14FF40013BA
:1017100041E04FF000633EE04FF400133BE04FF434
:10172000001338E04FF4001335E04FF4006332E06B
:101730004FF400632FE04FF400632CE04FF400639C
:1017400029E0202327E000BF0060024064840020DD
:1017500010600240106402407060024070640240F9
:101760002860024028640240886002408864024089
:101770004060024040640240A0600240A064024019
:101780005864024000640240B8600240202302E036
:10179000202300E020239B4A9360C6E09A4B1B68FD
:1017A0001A469A4B9A4260D9974B1B68984A9342C3
:1017B00057D0954B1B68974A934250D0924B1B6869
:1017C000954A934249D0904B1B68944A934242D029
:1017D0008D4B1B68924A93423AD08B4B1B68914ABF
:1017E000934232D0884B1B688F4A93422AD0864B53
:1017F0001B688E4A934222D0834B1B688C4A9342CB
:101800001AD0814B1B688B4A934212D07E4B1B68C7
:10181000894A93420AD07C4B1B68884A934202D182
:101820004FF400131EE04FF000631BE04FF4001371
:1018300018E04FF4001315E04FF4001312E04FF4DA
:1018400000630FE04FF400630CE04FF4006309E025
:101850004FF4006306E0202304E0202302E020236D
:1018600000E02023764AD3605FE0674B1B68684A3C
:10187000934257D0644B1B68664A934250D0624BE8
:101880001B68654A934249D05F4B1B68634A934289
:1018900042D05D4B1B68624A93423AD05A4B1B6858
:1018A000604A934232D0584B1B685F4A93422AD019
:1018B000554B1B685D4A934222D0534B1B685C4AD0
:1018C00093421AD0504B1B685A4A934212D04E4B47
:1018D0001B68594A93420AD04B4B1B68574A9342A4
:1018E00002D14FF400131EE04FF000631BE04FF4F1
:1018F000001318E04FF4001315E04FF4001312E04A
:101900004FF400630FE04FF400630CE04FF400630A
:1019100009E04FF4006306E0202304E0202302E006
:10192000202300E02023464A936000F093FD00F05E
:1019300045BD354B1B681A46424B9A4240F28480A3
:10194000314B1B68324A934257D02F4B1B68314AA8
:10195000934250D02C4B1B682F4A934249D02A4BBC
:101960001B682E4A934242D0274B1B682C4A934255
:101970003AD0254B1B682B4A934232D0224B1B682E
:10198000294A93422AD0204B1B68284A934222D0EE
:101990001D4B1B68264A93421AD01B4B1B68254AD5
:1019A000934212D0184B1B68234A93420AD0164B1D
:1019B0001B68224A934202D14FF400231EE04FF0ED
:1019C00000731BE04FF4002318E04FF4002315E0F0
:1019D0004FF4002312E04FF400730FE04FF4007354
:1019E0000CE04FF4007309E04FF4007306E00823A5
:1019F00004E0082302E0082300E00823014AD36042
:101A000073E100BF0064024064840020586002401B
:101A10001060024010640240706002407064024036
:101A200028600240286402408860024088640240C6
:101A30004060024040640240A0600240A064024056
:101A40000060024058640240954B1B681A46954B53
:101A50009A4260D9924B1B68934A934257D0904B5D
:101A60001B68924A934250D08D4B1B68904A934218
:101A700049D08B4B1B688F4A934242D0884B1B68DE
:101A80008D4A93423AD0864B1B688C4A934232D09F
:101A9000834B1B688A4A93422AD0814B1B68894A30
:101AA000934222D07E4B1B68874A93421AD07C4BCC
:101AB0001B68864A934212D0794B1B68844A934232
:101AC0000AD0774B1B68834A934202D14FF400231C
:101AD0001EE04FF000731BE04FF4002318E04FF4BA
:101AE000002315E04FF4002312E04FF400730FE0E1
:101AF0004FF400730CE04FF4007309E04FF40073EF
:101B000006E0082304E0082302E0082300E008239D
:101B1000714A9360E9E0624B1B681A466F4B9A4228
:101B200060D95F4B1B68604A934257D05C4B1B687F
:101B30005E4A934250D05A4B1B685D4A934249D04B
:101B4000574B1B685B4A934242D0554B1B685A4A1D
:101B500093423AD0524B1B68584A934232D0504B72
:101B60001B68574A93422AD04D4B1B68554A9342F3
:101B700022D04B4B1B68544A93421AD0484B1B68E7
:101B8000524A934212D0464B1B68514A93420AD0A4
:101B9000434B1B684F4A934202D14FF400231EE08F
:101BA0004FF000731BE04FF4002318E04FF40023C4
:101BB00015E04FF4002312E04FF400730FE04FF4F0
:101BC00000730CE04FF4007309E04FF4007306E07B
:101BD000082304E0082302E0082300E00823404A29
:101BE000D36082E02E4B1B682F4A93427AD02C4B55
:101BF0001B682E4A934250D0294B1B682C4A9342B3
:101C000049D0274B1B682B4A934242D0244B1B6878
:101C1000294A93423AD0224B1B68284A934232D039
:101C20001F4B1B68264A93422AD01D4B1B68254A2E
:101C3000934222D01A4B1B68234A93421AD0184B66
:101C40001B68224A934212D0154B1B68204A9342CC
:101C50000AD0134B1B681F4A934202D14FF4002352
:101C600041E04FF000733EE04FF400233BE04FF4BF
:101C7000002338E04FF4002335E04FF4007332E0E6
:101C80004FF400732FE04FF400732CE04FF4007317
:101C900029E0082327E0082325E0082323E000BFEC
:101CA00064840020B860024010600240106402406A
:101CB0007060024070640240286002402864024064
:101CC00088600240886402404060024040640240F4
:101CD000A0600240A06402400064024058600240DC
:101CE000006002400823964A9360964B1B681A4690
:101CF000954B9A425CD9934B1B68944A934253D0BC
:101D0000904B1B68924A93424CD08E4B1B68914A71
:101D1000934245D08B4B1B688F4A93423ED0894BF0
:101D20001B688E4A934237D0864B1B688C4A93427D
:101D300030D0844B1B688B4A934229D0814B1B685F
:101D4000894A934222D07F4B1B68884A93421AD01B
:101D50007C4B1B68864A934212D07A4B1B68854A9B
:101D600093420AD0774B1B68834A934202D14FF4C7
:101D700080331AE04FF4800317E04FF4803314E00F
:101D80004FF4803311E04FF480330EE040230CE039
:101D900040230AE0402308E0402306E0012304E05A
:101DA000012302E0012300E00123744AD36047E1EC
:101DB000644B1B681A46724B9A425CD9614B1B6894
:101DC000624A934253D05F4B1B68614A93424CD0A6
:101DD0005C4B1B685F4A934245D05A4B1B685E4A76
:101DE00093423ED0574B1B685C4A934237D0554BC9
:101DF0001B685B4A934230D0524B1B68594A93424E
:101E000029D0504B1B68584A934222D04D4B1B6837
:101E1000564A93421AD04B4B1B68554A934212D0F4
:101E2000484B1B68534A93420AD0464B1B68524AA0
:101E3000934202D14FF480331AE04FF4800317E04D
:101E40004FF4803314E04FF4803311E04FF48033CB
:101E50000EE040230CE040230AE0402308E040234A
:101E600006E0012304E0012302E0012300E0012356
:101E7000424A9360E4E0334B1B681A46414B9A4256
:101E800040F282802F4B1B68304A934253D02D4B37
:101E90001B682F4A93424CD02A4B1B682D4A934211
:101EA00045D0284B1B682C4A93423ED0254B1B68DB
:101EB0002A4A934237D0234B1B68294A934230D099
:101EC000204B1B68274A934229D01E4B1B68264A89
:101ED000934222D01B4B1B68244A93421AD0194BC1
:101EE0001B68234A934212D0164B1B68214A934227
:101EF0000AD0144B1B68204A934202D14FF480331E
:101F00001AE04FF4800317E04FF4803314E04FF4ED
:101F1000803311E04FF480330EE040230CE0402387
:101F20000AE0402308E0402306E0012304E0012307
:101F300002E0012300E00123014AD36080E000BFFA
:101F40000060024064840020586402401060024037
:101F500010640240706002407064024028600240D9
:101F60002864024088600240886402404060024069
:101F700040640240A0600240A0640240006402404D
:101F8000B860024058600240954B1B68954A9342E6
:101F900053D0934B1B68944A93424CD0904B1B6890
:101FA000924A934245D08E4B1B68914A93423ED051
:101FB0008B4B1B688F4A934237D0894B1B688E4AE4
:101FC000934230D0864B1B688C4A934229D0844B75
:101FD0001B688B4A934222D0814B1B68894A9342EB
:101FE0001AD07F4B1B68884A934212D07C4B1B68E7
:101FF000864A93420AD07A4B1B68854A934202D1A3
:102000004FF480331AE04FF4800317E04FF480332D
:1020100014E04FF4803311E04FF480330EE040239E
:102020000CE040230AE0402308E0402306E00123BF
:1020300004E0012302E0012300E00123754A9360DC
:10204000674B1B681A46744B9A4260D9644B1B68F5
:10205000644A934257D0624B1B68634A934250D004
:102060005F4B1B68614A934249D05D4B1B68604AD5
:10207000934242D05A4B1B685E4A93423AD0584B27
:102080001B685D4A934232D0554B1B685B4A9342B2
:102090002AD0534B1B685A4A934222D0504B1B689C
:1020A000584A93421AD04E4B1B68574A934212D05B
:1020B0004B4B1B68554A93420AD0494B1B68544A04
:1020C000934202D14FF480231EE04FF080731BE057
:1020D0004FF4802318E04FF4802315E04FF4802361
:1020E00012E04FF480730FE04FF480730CE04FF474
:1020F000807309E04FF4807306E0042304E00423B6
:1021000002E0042300E00423444AD36051E1344B4D
:102110001B681A46424B9A4240F28480304B1B683F
:10212000304A934257D02E4B1B682F4A934250D0CF
:102130002B4B1B682D4A934249D0294B1B682C4AD4
:10214000934242D0264B1B682A4A93423AD0244BF2
:102150001B68294A934232D0214B1B68274A93427D
:102160002AD01F4B1B68264A934222D01C4B1B6867
:10217000244A93421AD01A4B1B68234A934212D026
:10218000174B1B68214A93420AD0154B1B68204A03
:10219000934202D14FF480231EE04FF080731BE086
:1021A0004FF4802318E04FF4802315E04FF4802390
:1021B00012E04FF480730FE04FF480730CE04FF4A3
:1021C000807309E04FF4807306E0042304E00423E5
:1021D00002E0042300E00423104A9360E9E000BF1A
:1021E000648400201060024010640240706002406D
:1021F0007064024028600240286402408860024007
:10220000886402404060024040640240A060024096
:10221000A064024000600240586402400064024032
:10222000B8600240664B1B681A46664B9A4260D9FA
:10223000634B1B68644A934257D0614B1B68634AE7
:10224000934250D05E4B1B68614A934249D05C4B2D
:102250001B68604A934242D0594B1B685E4A9342C6
:102260003AD0574B1B685D4A934232D0544B1B689F
:102270005B4A93422AD0524B1B685A4A934222D05F
:102280004F4B1B68584A93421AD04D4B1B68574A14
:10229000934212D04A4B1B68554A93420AD0484B8E
:1022A0001B68544A934202D14FF480231EE04FF042
:1022B00080731BE04FF4802318E04FF4802315E077
:1022C0004FF4802312E04FF480730FE04FF48073DB
:1022D0000CE04FF4807309E04FF4807306E00423B0
:1022E00004E0042302E0042300E00423424AD36014
:1022F0005FE0334B1B68344A934257D0304B1B6826
:10230000324A934250D02E4B1B68314A934249D0F7
:102310002B4B1B682F4A934242D0294B1B682E4AF5
:1023200093423AD0264B1B682C4A934232D0244B1E
:102330001B682B4A93422AD0214B1B68294A93429F
:1023400022D01F4B1B68284A93421AD01C4B1B6893
:10235000264A934212D01A4B1B68254A93420AD050
:10236000174B1B68234A934202D14FF480231EE08F
:102370004FF080731BE04FF4802318E04FF480236C
:1023800015E04FF4802312E04FF480730FE04FF418
:1023900080730CE04FF4807309E04FF4807306E023
:1023A000042304E0042302E0042300E00423124A8F
:1023B000936080221149124814F082F900BF80BD59
:1023C00064840020586002401060024010640240A3
:1023D000706002407064024028600240286402403D
:1023E00088600240886402404060024040640240CD
:1023F000A0600240A064024000600240F80C00208F
:102400009888002080B500AF0F4B1B68DA680E4B30
:102410001B6842F01002DA600C4B1B681A680B4B09
:102420001B6842F010021A60084B1B681A68074BC1
:102430001B6842F008021A6080220549024814F025
:102440003FF900BF80BD00BF988800206484002051
:10245000F80C002080B582B000AF1E4B1B685B6893
:10246000C3F180037B601C4B1B687A689A4223D0BF
:10247000194B1B687A689A420BD9174B1B68174A8D
:102480009818154B1B687A68D31A194600F028F87B
:1024900012E0114B1B68114A1A440F4B1B68C3F121
:1024A00080031946104600F01BF87B68002B03D010
:1024B00079680A4800F014F8074A7B681360064BF5
:1024C0001B68802B02D1044B00221A6000BF083722
:1024D000BD4680BD648400207C0D0020F80C0020E7
:1024E00080B582B000AF78603960094B1B68094A3B
:1024F00013443A68796818461DF081FA044B1A684B
:102500003B681344024A136000BF0837BD4680BDD4
:10251000780D00206880002080B500AF054B1B6857
:102520001A46002104481DF075FA024B00221A6079
:1025300000BF80BD780D00206880002080B582B08B
:1025400000AF78604FF0FF3301227968064814F03D
:102550001EF80346002B0CBF01230023DBB21846F4
:102560000837BD4680BD00BF9888002080B582B086
:1025700000AF0C4B1B681B6803F01003102B0DD130
:1025800000237B60074B1B681B687B60054B1B6847
:102590005B687B607B68012001F022F900BF08378F
:1025A000BD4680BD3889002080B500AF9A4B1B68BE
:1025B0001B6803F00803002B00F0BD81964B1B68DD
:1025C0001A46964B9A4260D9934B1B68944A9342A1
:1025D00057D0914B1B68934A934250D08E4B1B6847
:1025E000914A934249D08C4B1B68904A934242D007
:1025F000894B1B688E4A93423AD0874B1B688D4AA1
:10260000934232D0844B1B688B4A93422AD0824B30
:102610001B688A4A934222D07F4B1B68884A9342A8
:102620001AD07D4B1B68874A934212D07A4B1B68A5
:10263000854A93420AD0784B1B68844A934202D160
:102640004FF480131EE04FF080631BE04FF48013C3
:1026500018E04FF4801315E04FF4801312E04FF4AC
:1026600080630FE04FF480630CE04FF4806309E077
:102670004FF4806306E0102304E0102302E01023EF
:1026800000E01023724AD36050E1634B1B681A4686
:10269000704B9A4260D9604B1B68614A934257D095
:1026A0005D4B1B685F4A934250D05B4B1B685E4A90
:1026B000934249D0584B1B685C4A934242D0564BD8
:1026C0001B685B4A93423AD0534B1B68594A93426A
:1026D00032D0514B1B68584A93422AD04E4B1B684C
:1026E000564A934222D04C4B1B68554A93421AD00B
:1026F000494B1B68534A934212D0474B1B68524ABE
:1027000093420AD0444B1B68504A934202D14FF483
:1027100080131EE04FF080631BE04FF4801318E03D
:102720004FF4801315E04FF4801312E04FF48063F0
:102730000FE04FF480630CE04FF4806309E04FF446
:10274000806306E0102304E0102302E0102300E081
:1027500010233F4A9360E9E02F4B1B681A463E4B1B
:102760009A4240F283802C4B1B682D4A934279D0C9
:10277000294B1B682B4A934272D0274B1B682A4A6D
:1027800093426BD0244B1B68284A934242D0224B81
:102790001B68274A93423AD01F4B1B68254A934235
:1027A00032D01D4B1B68244A93422AD01A4B1B6817
:1027B000224A934222D0184B1B68214A93421AD0D6
:1027C000154B1B681F4A934212D0134B1B681E4ABD
:1027D00093420AD0104B1B681C4A934202D14FF41B
:1027E000801340E04FF080633DE04FF480133AE007
:1027F0004FF4801337E04FF4801334E04FF48063DC
:1028000031E04FF480632EE04FF480632BE04FF40F
:10281000806328E0102326E0C4840020586402402E
:102820001060024010640240706002407064024018
:1028300028600240286402408860024088640240A8
:102840004060024040640240A0600240A064024038
:1028500000640240B860024058600240102302E069
:10286000102300E010239B4AD3605FE09A4B1B6863
:102870009A4A934257D0984B1B68994A934250D03A
:10288000954B1B68974A934249D0934B1B68964AD5
:10289000934242D0904B1B68944A93423AD08E4B5D
:1028A0001B68934A934232D08B4B1B68914A9342E8
:1028B0002AD0894B1B68904A934222D0864B1B68D2
:1028C0008E4A93421AD0844B1B688D4A934212D091
:1028D000814B1B688B4A93420AD07F4B1B688A4A04
:1028E000934202D14FF480131EE04FF080631BE04F
:1028F0004FF4801318E04FF4801315E04FF4801369
:1029000012E04FF480630FE04FF480630CE04FF46B
:10291000806309E04FF4806306E0102304E0102395
:1029200002E0102300E010236A4A9360002000F0C8
:1029300057FF00F009BF684B1B681B6803F01003CA
:10294000002B00F0BD81644B1B681A466F4B9A4206
:1029500060D9614B1B68614A934257D05E4B1B683C
:102960005F4A934250D05C4B1B685E4A934249D009
:10297000594B1B685C4A934242D0574B1B685B4AD9
:1029800093423AD0544B1B68594A934232D0524B2F
:102990001B68584A93422AD04F4B1B68564A9342B1
:1029A00022D04D4B1B68554A93421AD04A4B1B68A4
:1029B000534A934212D0484B1B68524A93420AD062
:1029C000454B1B68504A934202D14FF400131EE05E
:1029D0004FF000631BE04FF4001318E04FF40013B6
:1029E00015E04FF4001312E04FF400630FE04FF4D2
:1029F00000630CE04FF4006309E04FF4006306E06D
:102A0000202304E0202302E0202300E02023404A8A
:102A1000D36050E1304B1B681A463E4B9A4240F25D
:102A200083802D4B1B682D4A934279D02A4B1B681B
:102A30002B4A934272D0284B1B682A4A93426BD090
:102A4000254B1B68284A934242D0234B1B68274AD8
:102A500093423AD0204B1B68254A934232D01E4BFA
:102A60001B68244A93422AD01B4B1B68224A93427C
:102A700022D0194B1B68214A93421AD0164B1B686F
:102A80001F4A934212D0144B1B681E4A93420AD02D
:102A9000114B1B681C4A934202D14FF4001340E0D3
:102AA0004FF000633DE04FF400133AE04FF40013A1
:102AB00037E04FF4001334E04FF4006331E04FF49B
:102AC00000632EE04FF400632BE04FF4006328E036
:102AD000202326E000600240C484002010600240F1
:102AE000106402407060024070640240286002403E
:102AF00028640240886002408864024040600240CE
:102B000040640240A0600240A06402405864024059
:102B100000640240B8600240202302E0202300E06D
:102B20002023994A9360C6E0984B1B681A46984B3D
:102B30009A4260D9954B1B68964A934257D0934B63
:102B40001B68954A934250D0904B1B68934A93421E
:102B500049D08E4B1B68924A934242D08B4B1B68E4
:102B6000904A93423AD0894B1B688F4A934232D0A5
:102B7000864B1B688D4A93422AD0844B1B688C4A33
:102B8000934222D0814B1B688A4A93421AD07F4BD2
:102B90001B68894A934212D07C4B1B68874A934238
:102BA0000AD07A4B1B68864A934202D14FF4001335
:102BB0001EE04FF000631BE04FF4001318E04FF4E9
:102BC000001315E04FF4001312E04FF400630FE020
:102BD0004FF400630CE04FF4006309E04FF400632E
:102BE00006E0202304E0202302E0202300E020234D
:102BF000744AD3605FE0654B1B68664A934257D0C6
:102C0000624B1B68644A934250D0604B1B68634A16
:102C1000934249D05D4B1B68614A934242D05B4B63
:102C20001B68604A93423AD0584B1B685E4A9342F5
:102C300032D0564B1B685D4A93422AD0534B1B68D7
:102C40005B4A934222D0514B1B685A4A93421AD096
:102C50004E4B1B68584A934212D04C4B1B68574A44
:102C600093420AD0494B1B68554A934202D14FF414
:102C700000131EE04FF000631BE04FF4001318E058
:102C80004FF4001315E04FF4001312E04FF400630B
:102C90000FE04FF400630CE04FF4006309E04FF4E1
:102CA000006306E0202304E0202302E0202300E06C
:102CB0002023444A9360002000F092FD00F044BDC0
:102CC000324B1B681A46404B9A4240F283802F4B8E
:102CD0001B68304A934279D02C4B1B682E4A934292
:102CE00050D02A4B1B682D4A934249D0274B1B6872
:102CF0002B4A934242D0254B1B682A4A93423AD032
:102D0000224B1B68284A934232D0204B1B68274A2B
:102D100093422AD01D4B1B68254A934222D01B4B5D
:102D20001B68244A93421AD0184B1B68224A9342CC
:102D300012D0164B1B68214A93420AD0134B1B68D2
:102D40001F4A934202D14FF4002340E04FF000733A
:102D50003DE04FF400233AE04FF4002337E04FF416
:102D6000002334E04FF4007331E04FF400732EE0A1
:102D70004FF400732BE04FF4007328E0082326E0A3
:102D8000082324E0082322E000640240C4840020D9
:102D900058600240106002401064024070600240BF
:102DA000706402402860024028640240886002404B
:102DB000886402404060024040640240A0600240DB
:102DC000A064024000600240586402400823974A11
:102DD000D36050E1964B1B681A46964B9A4260D9D5
:102DE000934B1B68944A934257D0914B1B68934A6C
:102DF000934250D08E4B1B68914A934249D08C4BE2
:102E00001B68904A934242D0894B1B688E4A93427A
:102E10003AD0874B1B688D4A934232D0844B1B6853
:102E20008B4A93422AD0824B1B688A4A934222D013
:102E30007F4B1B68884A93421AD07D4B1B68874A98
:102E4000934212D07A4B1B68854A93420AD0784B42
:102E50001B68844A934202D14FF400231EE04FF0D6
:102E600000731BE04FF4002318E04FF4002315E03B
:102E70004FF4002312E04FF400730FE04FF400739F
:102E80000CE04FF4007309E04FF4007306E00823F0
:102E900004E0082302E0082300E00823634A93606B
:102EA000E9E0634B1B681A466F4B9A4260D9604B4E
:102EB0001B68614A934257D05D4B1B685F4A93423F
:102EC00050D05B4B1B685E4A934249D0584B1B68FD
:102ED0005C4A934242D0564B1B685B4A93423AD0BD
:102EE000534B1B68594A934232D0514B1B68584A86
:102EF00093422AD04E4B1B68564A934222D04C4BE9
:102F00001B68554A93421AD0494B1B68534A934257
:102F100012D0474B1B68524A93420AD0444B1B685D
:102F2000504A934202D14FF400231EE04FF0007349
:102F30001BE04FF4002318E04FF4002315E04FF49A
:102F4000002312E04FF400730FE04FF400730CE025
:102F50004FF4007309E04FF4007306E0082304E027
:102F6000082302E0082300E00823404AD36082E0FF
:102F70002F4B1B68304A93427AD02D4B1B682F4A47
:102F8000934250D02A4B1B682D4A934249D0284B7C
:102F90001B682C4A934242D0254B1B682A4A934215
:102FA0003AD0234B1B68294A934232D0204B1B68EE
:102FB000274A93422AD01E4B1B68264A934222D0AE
:102FC0001B4B1B68244A93421AD0194B1B68234A97
:102FD000934212D0164B1B68214A93420AD0144BDD
:102FE0001B68204A934202D14FF4002341E04FF086
:102FF00000733EE04FF400233BE04FF4002338E041
:103000004FF4002335E04FF4007332E04FF40073C7
:103010002FE04FF400732CE04FF4007329E00823F5
:1030200027E0082325E0082323E000BF00640240D6
:10303000C4840020B8600240106002401064024066
:1030400070600240706402402860024028640240C0
:103050008860024088640240406002404064024050
:10306000A0600240A064024058600240006002403C
:103070000823964A9360964B1B681A46954B9A42D2
:103080005CD9934B1B68944A934253D0904B1B6876
:10309000924A93424CD08E4B1B68914A934245D042
:1030A0008B4B1B688F4A93423ED0894B1B688E4ADC
:1030B000934237D0864B1B688C4A934230D0844B66
:1030C0001B688B4A934229D0814B1B68894A9342E3
:1030D00022D07F4B1B68884A93421AD07C4B1B68D6
:1030E000864A934212D07A4B1B68854A93420AD093
:1030F000774B1B68834A934202D14FF480331AE026
:103100004FF4800317E04FF4803314E04FF4803322
:1031100011E04FF480330EE040230CE040230AE03E
:10312000402308E0402306E0012304E0012302E0FD
:10313000012300E00123744AD36047E1644B1B681C
:103140001A46724B9A425CD9614B1B68624A9342A1
:1031500053D05F4B1B68614A93424CD05C4B1B6859
:103160005F4A934245D05A4B1B685E4A93423ED019
:10317000574B1B685C4A934237D0554B1B685B4AE0
:10318000934230D0524B1B68594A934229D0504B3E
:103190001B68584A934222D04D4B1B68564A9342B3
:1031A0001AD04B4B1B68554A934212D0484B1B68B0
:1031B000534A93420AD0464B1B68524A934202D16B
:1031C0004FF480331AE04FF4800317E04FF480335C
:1031D00014E04FF4803311E04FF480330EE04023CD
:1031E0000CE040230AE0402308E0402306E00123EE
:1031F00004E0012302E0012300E00123424A93603E
:10320000E4E0334B1B681A46414B9A4240F28280FD
:103210002F4B1B68304A934253D02D4B1B682F4ACB
:1032200093424CD02A4B1B682D4A934245D0284BE1
:103230001B682C4A93423ED0254B1B682A4A934276
:1032400037D0234B1B68294A934230D0204B1B6850
:10325000274A934229D01E4B1B68264A934222D00C
:103260001B4B1B68244A93421AD0194B1B68234AF4
:10327000934212D0164B1B68214A93420AD0144B3A
:103280001B68204A934202D14FF480331AE04FF476
:10329000800317E04FF4803314E04FF4803311E0E3
:1032A0004FF480330EE040230CE040230AE040233B
:1032B00008E0402306E0012304E0012302E00123AB
:1032C00000E00123014AD36080E000BF00600240BB
:1032D000C484002058640240106002401064024020
:1032E000706002407064024028600240286402401E
:1032F00088600240886402404060024040640240AE
:10330000A0600240A064024000640240B860024035
:1033100058600240954B1B68954A934253D0934B9B
:103320001B68944A93424CD0904B1B68924A93423C
:1033300045D08E4B1B68914A93423ED08B4B1B6805
:103340008F4A934237D0894B1B688E4A934230D0C4
:10335000864B1B688C4A934229D0844B1B688B4A4E
:10336000934222D0814B1B68894A93421AD07F4BEB
:103370001B68884A934212D07C4B1B68864A934252
:103380000AD07A4B1B68854A934202D14FF48033AE
:103390001AE04FF4800317E04FF4803314E04FF449
:1033A000803311E04FF480330EE040230CE04023E3
:1033B0000AE0402308E0402306E0012304E0012363
:1033C00002E0012300E00123754A9360674B1B680C
:1033D0001A46744B9A4260D9644B1B68644A934204
:1033E00057D0624B1B68634A934250D05F4B1B68B7
:1033F000614A934249D05D4B1B68604A934242D078
:103400005A4B1B685E4A93423AD0584B1B685D4A40
:10341000934232D0554B1B685B4A93422AD0534BA0
:103420001B685A4A934222D0504B1B68584A934219
:103430001AD04E4B1B68574A934212D04B4B1B6815
:10344000554A93420AD0494B1B68544A934202D1D1
:103450004FF480231EE04FF080731BE04FF4802375
:1034600018E04FF4802315E04FF4802312E04FF46E
:1034700080730FE04FF480730CE04FF4807309E029
:103480004FF4807306E0042304E0042302E00423E5
:1034900000E00423444AD36051E1344B1B681A46D0
:1034A000424B9A4240F28480304B1B68304A934230
:1034B00057D02E4B1B682F4A934250D02B4B1B6882
:1034C0002D4A934249D0294B1B682C4A934242D043
:1034D000264B1B682A4A93423AD0244B1B68294A40
:1034E000934232D0214B1B68274A93422AD01F4B6C
:1034F0001B68264A934222D01C4B1B68244A9342E5
:103500001AD01A4B1B68234A934212D0174B1B68E0
:10351000214A93420AD0154B1B68204A934202D19C
:103520004FF480231EE04FF080731BE04FF48023A4
:1035300018E04FF4802315E04FF4802312E04FF49D
:1035400080730FE04FF480730CE04FF4807309E058
:103550004FF4807306E0042304E0042302E0042314
:1035600000E00423104A9360E9E000BFC484002017
:1035700010600240106402407060024070640240BB
:10358000286002402864024088600240886402404B
:103590004060024040640240A0600240A0640240DB
:1035A000006002405864024000640240B86002407B
:1035B000664B1B681A46664B9A4260D9634B1B6880
:1035C000644A934257D0614B1B68634A934250D080
:1035D0005E4B1B68614A934249D05C4B1B68604A52
:1035E000934242D0594B1B685E4A93423AD0574BA4
:1035F0001B685D4A934232D0544B1B685B4A93422E
:103600002AD0524B1B685A4A934222D04F4B1B6818
:10361000584A93421AD04D4B1B68574A934212D0D6
:103620004A4B1B68554A93420AD0484B1B68544A80
:10363000934202D14FF480231EE04FF080731BE0D1
:103640004FF4802318E04FF4802315E04FF48023DB
:1036500012E04FF480730FE04FF480730CE04FF4EE
:10366000807309E04FF4807306E0042304E0042330
:1036700002E0042300E00423424AD3605FE0334BBE
:103680001B68344A934257D0304B1B68324A9342EE
:1036900050D02E4B1B68314A934249D02B4B1B68AC
:1036A0002F4A934242D0294B1B682E4A93423AD06C
:1036B000264B1B682C4A934232D0244B1B682B4A62
:1036C00093422AD0214B1B68294A934222D01F4B98
:1036D0001B68284A93421AD01C4B1B68264A934207
:1036E00012D01A4B1B68254A93420AD0174B1B680D
:1036F000234A934202D14FF480231EE04FF080739F
:103700001BE04FF4802318E04FF4802315E04FF4C2
:10371000802312E04FF480730FE04FF480730CE0CD
:103720004FF4807309E04FF4807306E0042304E053
:10373000042302E0042300E00423124A9360802261
:103740001149124812F0BCFF00BF80BDC4840020A4
:1037500058600240106002401064024070600240F5
:103760007064024028600240286402408860024081
:10377000886402404060024040640240A060024011
:10378000A064024000600240800D002038890020C3
:1037900080B500AF0F4B1B68DA680E4B1B6842F018
:1037A0001002DA600C4B1B681A680B4B1B6842F066
:1037B00010021A60084B1B681A68074B1B6842F01E
:1037C00008021A6080220549024812F079FF00BF02
:1037D00080BD00BF38890020C4840020800D0020F7
:1037E00080B584B000AF0346FB71244B1B78002BDF
:1037F00004D0224B00221A7000F064F81F4AFB79B3
:1038000013701F4B1B685B68C3F18003FB601D4B8B
:103810001B68FA689A4223D01A4B1B68FA689A42CE
:103820000BD9184B1B68184A9818164B1B68FA6876
:10383000D31A194600F02AF812E0124B1B68124AFC
:103840001A44104B1B68C3F180031946104600F060
:103850001DF8FB68002B03D0F9680B4800F016F840
:10386000084AFB681360074B1B68802B02D1054B8D
:1038700000221A6000BF1037BD4680BD0000002046
:10388000C4840020040E0020800D002080B582B08A
:1038900000AF78603960094B1B68094A13443A68E5
:1038A000796818461CF0ABF8044B1A683B6813445F
:1038B000024A136000BF0837BD4680BD000E0020DD
:1038C0006881002080B500AF054B1B681A460021B7
:1038D00004481CF09FF8024B00221A6000BF80BD14
:1038E000000E00206881002080B500AF00F05AF87B
:1038F000074908480AF031FA054B074A9A6004491B
:1039000004480AF0A8F900F05BF800BF80BD00BFD2
:10391000080E0020AC8900206883002080B588B0A4
:1039200002AFF860B9601346FB8000F03BF8FA88FC
:103930004FF47A730093FB68B96808480AF06EFA8E
:103940000346002B0CBF01230023DBB2FB7500F004
:1039500037F8FB7D18461837BD4680BDAC8900207E
:1039600080B588B002AFF860B9601346FB8000F004
:1039700019F8FA884FF47A730093FB68B96808481D
:103980000AF0E0FA0346002B0CBF01230023DBB250
:10399000FB7500F015F8FB7D18461837BD4680BD55
:1039A000AC89002080B500AF044B1B684FF0FF319D
:1039B000184614F0A3FA00BF80BD00BF9088002015
:1039C00080B500AF034B1B68184614F0F5FA00BF32
:1039D00080BD00BF9088002080B500AF00F036F8B1
:1039E0000346002B01D107F097FD094809F0FEFAC4
:1039F0000346002B01D007F08FFD0221044809F097
:103A00005BFD0346002B01D007F086FD00BF80BDA3
:103A10007C89002080B485B000AFF860B9607A601E
:103A2000FB680022DA60FB6800229A60FB680022D3
:103A30001A75FB68BA681A60FB687A681A6100BF79
:103A40001437BD465DF8047B7047000080B58AB02E
:103A500000AF00237B610023BB610123FB610023D6
:103A60003B6000237B600023BB600023FB600023DE
:103A70003B6101233B623B461946064809F0CAF9FF
:103A80000346002B0CBF01230023DBB21846283766
:103A9000BD4680BD7C89002080B584B000AF7860D1
:103AA00000F070F802E001201BF08AFE0E4809F0D9
:103AB000BCFB0346002BF6D079687B6803F1180243
:103AC00007F10803084809F0D5FA0346FB7300F034
:103AD00067F8FB7B002B0CBF01230023DBB21846E9
:103AE0001037BD4680BD00BF7C89002080B584B002
:103AF00000AF78607A687B6820330021074809F0BE
:103B0000C9FB0346FB73FB7B002B0CBF0123002387
:103B1000DBB218461037BD4680BD00BF7C8900204F
:103B200080B400AF074B9B6A002B02D1054B1B6A88
:103B300002E0044B5B6A1B0D1846BD465DF8047B32
:103B4000704700BF7883002080B582B000AF7860F6
:103B50000A48FFF7CBFF0346002B0AD013F03AFDCB
:103B60000346022B05D1064B1B680121184613F0B2
:103B700057FE00BF0837BD4680BD00BF98830020B8
:103B80005088002080B500AF044B1B684FF0FF3118
:103B9000184614F0B3F900BF80BD00BFD4850020E3
:103BA00080B500AF034B1B68184614F005FA00BF40
:103BB00080BD00BFD485002080B586B000AF7B609B
:103BC0000346FB810B46BB811346FB7200237B61DE
:103BD0006B4ABB89138000F053FAFB89DBB20122E8
:103BE0000221184600F0BAFA03461A467B691344CC
:103BF0007B61BB89013B032B1AD801A252F823F049
:103C0000113C0208193C0208213C0208293C020828
:103C10005C4BFA221A700FE05A4BAF221A700BE07D
:103C2000584BAA221A7007E0564B05221A7003E07F
:103C3000544B05221A7000BFFB89D8B2514B1B7838
:103C4000DBB21A46042100F089FA03461A467B6962
:103C500013447B61FB89DBB280220521184600F00A
:103C60007DFA03461A467B6913447B61FB89DBB20C
:103C700004220621184600F071FA03461A467B69B1
:103C800013447B61FB89DBB200222021184600F03F
:103C900065FA03461A467B6913447B61FB89DBB2F4
:103CA00000222121184600F059FA03461A467B6982
:103CB00013447B61BB89022B0BD0FB89DBB206224C
:103CC0000F21184600F04AFA03461A467B6913444E
:103CD0007B61FA7AFB891146184600F0A7F8024684
:103CE0007B6913447B61FB89DBB200220A21184601
:103CF00000F034FA03461A467B6913447B61FB8962
:103D0000DBB204220E21184600F028FA03461A46B8
:103D10007B6913447B61FB89DBB2002227211846B3
:103D200000F01CFA03461A467B6913447B61FB8949
:103D3000DBB20F221F21184600F010FA03461A4684
:103D40007B6913447B61FB89DBB20A221A21184686
:103D500000F004FA03461A467B6913447B61FB8931
:103D6000DBB20A221B21184600F0F8F903461A4676
:103D70007B6913447B617B6918461837BD4680BD5B
:103D8000320E0020340E002080B584B000AF034610
:103D9000FB8000F075F9FB88DBB20121184600F0CA
:103DA000B1F90346FB73FB7B23F00703FB73FB7B3B
:103DB00018461037BD4680BD80B584B000AF0346BD
:103DC0003960FB801346BB800023FB60164B1B78D9
:103DD000012B23D1FB88DBB206220E21184600F00E
:103DE000BDF903461A46FB681344FB60FB880021BB
:103DF000184600F065F80246FB681344FB60FB8838
:103E0000DBB29E220221184600F0A8F903461A46AA
:103E1000FB681344FB60044B00221A70FB681846D1
:103E20001037BD4680BD00BF01000020B0B584B092
:103E300000AF03460A46FB8013467B710023BB603C
:103E40001D4A7B7913701D4B1B88022B04D0242341
:103E5000FB812523BB8103E02223FB812323BB813C
:103E6000FB88DCB2FB89DDB27B79184600F090F963
:103E700003461A462946204600F070F903461A46C2
:103E8000BB681344BB60FB88DCB2BB89DDB27B79C5
:103E9000184600F07DF903461A462946204600F0F0
:103EA0005DF903461A46BB681344BB60BB681846FD
:103EB0001037BD46B0BD00BF300E0020320E0020CE
:103EC000B0B584B000AF03463960FB800023FB60CF
:103ED000384B1B88022B04D024237B8125233B8174
:103EE00003E022237B8123233B813B68012B26D1E6
:103EF000FB88DBB2FF220421184600F02FF90346AD
:103F00001A46FB681344FB60FB88DBB27A89D1B2A6
:103F10000122184600F022F903461A46FB681344B2
:103F2000FB60FB88DBB23A89D1B20122184600F06F
:103F300015F903461A46FB681344FB6035E0FB881D
:103F4000DCB27B89DDB21C4B1B78184600F020F9EF
:103F500003461A462946204600F000F903461A4651
:103F6000FB681344FB60FB88DCB23B89DDB2124B7B
:103F70001B78184600F00CF903461A4629462046DD
:103F800000F0ECF803461A46FB681344FB60FB881C
:103F9000D8B20A4B1B78DBB21A46042100F0DEF8D7
:103FA00003461A46FB681344FB60FB68184610374B
:103FB000BD46B0BD320E0020300E0020340E002071
:103FC00090B585B000AF0446084611461A46234610
:103FD000FB8003467B710B463B711346FB7000234D
:103FE000FB60FB88D8B27B791B015AB297F9043089
:103FF00013435BB2DBB21A461C2100F0AFF8034654
:104000001A46FB681344FB60FB88D8B2FB785B015F
:104010005BB243F006035BB2DBB21A461D2100F02F
:104020009DF803461A46FB681344FB60FB6818467C
:104030001437BD4690BD80B584B000AF0346FB8009
:104040000B467B7113463B710023FB60FB88D8B2A3
:104050007B799B015AB23B795B015BB213435BB244
:10406000DBB21A461E2100F079F803461A46FB68B7
:104070001344FB60FB6818461037BD4680BD000046
:1040800080B500AF0022102108480CF0B9F84FF4B9
:10409000FA701BF095FB0122102104480CF0B0F8D7
:1040A0004FF4FA701BF08CFB00BF80BD000C024087
:1040B00080B588B004AF0346FB710B46BB71134655
:1040C0007B710023FB73FB7999B2BB799AB24FF4F1
:1040D00080530293012301937B1D00930123084821
:1040E0000CF010FB0346FB73FB7B002B03D0FB792A
:1040F000184600F0B9F800BF1037BD4680BD00BFBC
:104100007C85002080B588B004AF03460A46FB7169
:104110001346BB710023FB730023BB73FB7999B279
:10412000BB799AB24FF4805302930123019307F1B4
:104130000E030093012308480CF0DEFB0346FB73DB
:10414000FB7B002B03D0FB79184600F08DF8BB7B7E
:1041500018461037BD4680BD7C85002080B584B0F0
:1041600000AF0346FB710B46BB7113467B71002306
:10417000FB607A79B979FB791846FFF799FFFB68FC
:10418000DBB218461037BD4680BD000000000000BD
:1041900090B589B000AF0346FB7131A4D4E9003477
:1041A000C7E90634FB79002B01D0FB7900E001233D
:1041B000FB71FB79642B17D8FB794FF00004BA69C7
:1041C00004FB02F1FA6903FB02F20A44B969A1FB9C
:1041D0000301531819464FF064024FF00003FCF737
:1041E0008BFD03460C4601E0D7E90634C7E90434E9
:1041F000D7E90434591C44F1000208461146FCF783
:10420000FDF903460C4644EC103B1DF0FDFD51EC5E
:10421000100B4FF00002104BFCF726FA03460C4639
:1042200018462146FCF7F8FC0346FB73FB7B642B26
:104230000BD8FA7B13461B029B1A084A82FB031217
:104240005211DB17D31ADBB200E0FF23BB73BB7B39
:1042500018462437BD4690BD000024401F85EB5111
:1042600000E40B540200000080B582B000AF0346AA
:10427000FB71054807F088FB034807F08FFA00BF81
:104280000837BD4680BD00BF7C85002080B582B068
:1042900000AF0346FB71FB79002B0CBF0123002309
:1042A000DBB21A46042105480BF0AAFF4FF4FA705E
:1042B0001BF086FA00BF0837BD4680BD00080240EB
:1042C00080B582B000AF0346FB71FB1D1846FEF7B8
:1042D00035F900BF0837BD4680BD80B582B000AF5C
:1042E0000346FB80FB881B0A9BB2DBB21846FFF734
:1042F000E7FFFB88DBB21846FFF7E2FF00BF083795
:10430000BD4680BD80B582B000AFFEF705F92C4BED
:104310001B881846FFF7E1FF294B9B781846FFF7EB
:10432000CFFF274BDB781846FFF7CAFF244B1B79DA
:104330001846FFF7C5FF224B5B791846FFF7C0FF11
:104340001F4B9B791846FFF7BBFF1D4B1B890233A0
:104350007B807B881846FFF7C0FF7B881B0A9AB2D8
:104360007B88DBB29BB213449AB2154B9B799BB20C
:104370001344FB8000237B7111E07B79104A1344C6
:104380009B7A1846FFF79CFF7B790D4A13449B7A72
:104390009AB2FB881344FB807B7901337B717B7974
:1043A0009AB2074B1B899A42E7D3FB881846FFF75E
:1043B00094FFFA201BF004FA00BF0837BD4680BD09
:1043C000C083002080B483B000AF0023FB80FB8853
:1043D000364AD35C7B71FB88082B4CD801A252F87B
:1043E00023F000BF094402082144020841440208A6
:1043F0004144020841440208414402084F44020873
:1044000057440208654402087B79EF2B01D0FE2354
:1044100046E07B799BB21B029AB2254B1A803BE0A7
:10442000234B1A887B799BB213439AB2204B1A8094
:104430001F4B1B884EF6017293422AD0FE232FE0B9
:10444000FB88023B1A4A13447A799A7024E0184A8E
:104450007B79937120E07B799BB21B029AB2144B5B
:104460001A8119E0124B1A897B799BB213439AB2D5
:104470000F4B1A8110E0FB88093B0D4A13447A79EF
:104480009A72FB88083B0A4A1289934203D100239F
:1044900006E000BF00E000BFFB880133FB8096E729
:1044A00018460C37BD465DF8047B704768800020D5
:1044B000C083002080B582B000AF78600B46FB70EF
:1044C000FB789BB27A681946012000F017F8FFF7D5
:1044D00019FFFFF777FF0346002B01D0012307E008
:1044E000054B9B79072B01D0012301E0024B9B7AFE
:1044F00018460837BD4680BDC0830020F0B583B0A4
:1045000000AF03463A60FB710B46BB801C4B4EF676
:1045100001721A801A4AFB799371194ABB88138178
:10452000174BFF229A70164BFF22DA70144BFF22B2
:104530001A71134BFF225A71BB883F2B06D8BB88D8
:104540001A4639680F481BF05AFA15E00C4A3B68C6
:1045500002F10A0003F1400402461946D1F800C0F6
:104560004E688D68C968C2F800C056609560D16019
:1045700010331030A342EFD100BF0C37BD46F0BD61
:10458000C0830020CA83002080B500AF00F008F887
:104590000346002B0CBF01230023DBB2184680BD6D
:1045A00080B582B000AF13233B7000237B700023E3
:1045B000BB700023FB7000233B713B46052118466E
:1045C000FFF778FF054B9B7A002B01D1002300E019
:1045D000012318460837BD4680BD00BFC0830020B8
:1045E00080B582B000AF01233B713B1D012118460D
:1045F000FFF760FF034618460837BD4680BD80B50B
:1046000084B000AF0346FB7102233B73FB797B73DD
:1046100007F10C0302211846FFF74CFF034618462A
:104620001037BD4680BD80B582B000AF05233B7119
:104630003B1D01211846FFF73DFF0346184608378A
:10464000BD4680BD80B584B000AF0346FB80062325
:104650003B7301237B73FB881B0A9BB2DBB2BB73EA
:10466000FB88DBB2FB7307F10C0304211846FFF74C
:1046700021FF034618461037BD4680BD80B584B083
:1046800000AF0346FB800C233B72FB881B0A9BB2E6
:10469000DBB27B72FB88DBB2BB720023FB720123AF
:1046A0003B7307F1080305211846FFF703FF034694
:1046B00018461037BD4680BD80B582B000AF0D23CF
:1046C0003B713B1D01211846FFF7F4FE03461846D7
:1046D0000837BD4680BD000080B582B000AF214ADA
:1046E0003B4692E803001860043319803B460621DC
:1046F0001846FFF7DFFE1C4B4FF6FF721A801A4B6D
:104700004FF6FF725A80194BDB7A9AB2164B1A8019
:10471000154B1B881B029AB2134B1A80124B1A8836
:10472000124B1B7B9BB213439AB20F4B1A800F4B59
:104730005B7B9AB20C4B5A800B4B5B881B029AB284
:10474000094B5A80084B5A88084B9B7B9BB21343FA
:104750009AB2054B5A80054B9B7A18460837BD46DE
:1047600080BD00BF0C3504080C840020C0830020ED
:1047700080B582B000AF1D233B713B1D012118465F
:10478000FFF798FE0C4BDB7A9AB20C4B9A800B4BDE
:104790009B881B029AB2094B9A80084B9A88064B59
:1047A0001B7B9BB213439AB2044B9A80024B9B7AB9
:1047B00018460837BD4680BDC08300200C84002009
:1047C00080B58CB004AFF860B96011461A460B464C
:1047D000FB711346BB71FB68FB61FB7963F02F0330
:1047E000DAB2BB681A70BB681B78FB76FB7E99B2A5
:1047F00005230222F8690CF0A5FA0346002B01D02C
:1048000001233FE0FB7E99B24FF47A7302930123B8
:10481000019307F11703009301237522F8690CF047
:104820006BF80346002B01D001232BE0FB7D682BA6
:1048300001D0032326E06B233B7601237B76FB7EAE
:1048400099B207F118024FF47A7300930223F869C2
:104850000BF05AFE0346002B01D0012312E0002288
:10486000B968F86800F012F8BB791A46B968F868B8
:1048700000F030F897F828301A46B968F86800F068
:104880008FF8002318462037BD4680BD80B58AB01A
:1048900004AFF860B9601346FB71FB687B61BB68CD
:1048A0001B78FB7400BFFB7C99B24FF47A730293C0
:1048B00001230193FB1D00930123192278690BF05A
:1048C00021FF0346002BEED1002318461837BD46C2
:1048D00080BD000080B58AB004AFF860B9601346AF
:1048E000FB71FB687B61BB681B78FB7400BFFB7CC2
:1048F00099B24FF47A7302930123019307F11203E3
:10490000009301231C2278690BF0F6FF0346002B6D
:10491000EDD1BB7C5BB223F018035AB2FB79DB000C
:104920005BB213435BB2DBB2BB7400BFFB7C99B2DA
:104930004FF47A7302930123019307F1120300935A
:1049400001231C2278690BF0DDFE0346002BEDD11C
:10495000FB79032B1ED801A252F823F06D490208FF
:1049600077490208814902088B490208BB684FF069
:1049700062529A600FE0BB684FF064529A600AE09E
:10498000BB684FF066529A6005E0BB684FF0685212
:104990009A6000E000BF002318461837BD4680BD6E
:1049A00080B58AB004AFF860B9601346FB71FB684C
:1049B0007B61BB681B78FB7400BFFB7C99B24FF432
:1049C0007A7302930123019307F1120300930123E9
:1049D0001B2278690BF090FF0346002BEDD1BB7CC6
:1049E0005BB223F018035AB2FB79DB005BB21343CE
:1049F0005BB2DBB2BB7400BFFB7C99B24FF47A733D
:104A000002930123019307F11203009301231B2258
:104A100078690BF077FE0346002BEDD1FB79032B71
:104A20001AD801A252F823F0394A0208414A020872
:104A3000494A0208514A0208BB680A4A5A600CE017
:104A4000BB68094A5A6008E0BB68084A5A6004E03B
:104A5000BB68074A5A6000E000BF002318461837B9
:104A6000BD4680BD2D23FA3B2D237A3C90C1F93CF5
:104A700090C1793D80B58CB004AF786039607B68B7
:104A8000FB613B681B78FB7600BFFB7E99B24FF45D
:104A90007A7302930E23019307F108030093012315
:104AA0003B22F8690BF028FF0346002BEDD13B7A3F
:104AB0001B021AB27B7A1BB213431AB23B689A816B
:104AC000BB7A1B021AB2FB7A1BB213431AB23B68C1
:104AD000DA813B7B1B021AB27B7B1BB213431AB2F7
:104AE0003B681A82BB7B1B021AB2FB7B1BB21343CF
:104AF0003B83B7F9183007EE903AB8EEE77ADFED6E
:104B0000156AC7EE267A9FED147A77EE877A3B68AE
:104B1000C3ED067A3B7C1B021AB27B7C1BB21343AB
:104B20001AB23B685A82BB7C1B021AB2FB7C1BB2D6
:104B300013431AB23B689A823B7D1B021AB27B7DFB
:104B40001BB213431AB23B68DA820023184620379F
:104B5000BD4680BD0000AA43B81E124280B582B097
:104B600000AF78607422002178681AF053FF0123A7
:104B700018460837BD4680BD80B586B000AFF860E6
:104B8000B9607A60BB687B61A4E07B691B78242BE9
:104B900025D1FB6844333022002118461AF03AFF31
:104BA000FB6893F852300B2B00F29180FB6893F86E
:104BB00052305A1CD1B2FA6882F8521019467B69F9
:104BC0001A78FB680B4483F84520FB6893F8523051
:104BD0001A46FB681344002283F8452077E07B697E
:104BE0001B782C2B1DD1F86800F0E8F9FB6893F8CE
:104BF00055207B691B785340DAB2FB6883F8552057
:104C0000FB68002283F85220FB68002283F84520CD
:104C1000FB6893F853300133DAB2FB6883F8532012
:104C200055E07B691B782A2B17D1F86800F0C6F98C
:104C3000FB68012283F85420FB68002283F852208D
:104C4000FB68002283F84520FB6893F8533001335A
:104C5000DAB2FB6883F8532039E07B691B780D2BAF
:104C600009D1F86800F040FC0346002B2FD0F8680B
:104C700000F0C3FC2BE0FB6893F85430002B09D103
:104C8000FB6893F855207B691B785340DAB2FB68C8
:104C900083F85520FB6893F852300B2B17D8FB682C
:104CA00093F852305A1CD1B2FA6882F85210194661
:104CB0007B691A78FB680B4483F84520FB6893F8FE
:104CC00052301A46FB681344002283F845207B6962
:104CD00001337B617B685A1E7A60002B7FF455AFED
:104CE000012318461837BD4680BD000080B483B04C
:104CF00000AF87ED010A0346FB70FB780E2B00F234
:104D0000868001A252F823F0454D0208534D020857
:104D1000614D02086F4D02087D4D02088B4D02085F
:104D2000994D0208A74D0208B54D0208C34D02086F
:104D3000D14D0208DF4D0208ED4D0208FB4D02087F
:104D4000094E0208D7ED017A9FED357A67EE877A32
:104D50005FE0D7ED017A9FED337A67EE877A58E00E
:104D6000D7ED017A9FED307A67EE877A51E0D7ED83
:104D7000017A9FED2E7A67EE877A4AE0D7ED017AC5
:104D80009FED2B7A67EE877A43E0D7ED017A9FEDAE
:104D9000297A67EE877A3CE0D7ED017A9FED267A93
:104DA00067EE877A35E0D7ED017A9FED247A67EEDA
:104DB000877A2EE0D7ED017A9FED217A67EE877A28
:104DC00027E0D7ED017A9FED1F7A67EE877A20E022
:104DD000D7ED017A9FED1C7A67EE877A19E0D7ED5F
:104DE000017A9FED1A7A67EE877A12E0D7ED017AA1
:104DF0009FED177A67EE877A0BE0D7ED017A9FED8A
:104E0000157A67EE877A04E0D7ED017A01E0DFEDED
:104E1000127AB0EE670A0C37BD465DF8047B704726
:104E2000F5BD063A560EED3FB8AF033FC3F5F64168
:104E3000689DA739F853933F6210D83F9A99CA42A8
:104E40009A9901420000F344666642435C8F5042E7
:104E50000080434533B331430000000080B485B087
:104E600000AF786039600023FB603B68002B06D1FF
:104E70007B6845333B6002E03B6801333B603B6845
:104E8000002B03D03B681B78202BF5D03B681B78A8
:104E90002D2B04D13B6801333B60012300E000234C
:104EA000FB720DE0FA6813469B0013445B001A4640
:104EB0003B681B78303B1344FB603B6801333B602D
:104EC0003B68002B07D03B681B782F2B03D93B682E
:104ED0001B78392BE6D9FB7A002B02D0FB685B42AA
:104EE00000E0FB6818461437BD465DF8047B704748
:104EF00080B584B000AF786039603B68002B06D184
:104F00007B6845333B6002E03B6801333B603B68B4
:104F1000002B03D03B681B78202BF5D0002138688C
:104F20001BF0DEFB87ED030AFB6807EE903AB0EE5C
:104F3000670A1037BD4680BD80B586B000AF786087
:104F400000217868FFF7D4FF87ED050AD7ED057AD1
:104F5000FDEEE77A17EE901A154B83FB01235A11E9
:104F6000CB17D31A07EE903AF8EEE77AC7ED047A3A
:104F7000D7ED047A9FED0F7A67EE877A97ED057A81
:104F800077EE677AC7ED037A97ED037ADFED0A6A69
:104F9000C7EE267A97ED047A77EE277AC7ED057A81
:104FA0007B6907EE903AB0EE670A1837BD4680BDC0
:104FB0001F85EB510000C8420000704280B582B0EE
:104FC00000AF78607B6893F85330002B69D17B6821
:104FD00045330622C44918461AF044FD0346002B07
:104FE00009D07B6845330622C04918461AF03AFDBD
:104FF0000346002B04D17B68012283F844204EE055
:105000007B6845330622BA4918461AF02BFD034641
:10501000002B09D07B6845330622B64918461AF0A2
:1050200021FD0346002B04D17B68022283F8442033
:1050300035E07B6845330622AF4918461AF012FD69
:105040000346002B09D07B6845330622AB4918463E
:105050001AF008FD0346002B04D17B68032283F875
:1050600044201CE07B6845330622A54918461AF007
:10507000F9FC0346002B09D07B6845330622A14981
:1050800018461AF0EFFC0346002B04D17B6804227B
:1050900083F8442003E07B68002283F84420012346
:1050A0001DE27B6893F84430002B00F017827B6888
:1050B00093F84430012B40F0C0807B6893F8533064
:1050C000013B0A2B00F2FD8101A252F823F000BF40
:1050D000FD5002087751020889510208B1510208B7
:1050E000C3510208EB510208FF510208C3540208E1
:1050F00013520208C3540208275202087B6893F82F
:105100004530303BDBB21A46920013445B00DAB202
:105110007B6893F846301344DBB2303BDAB27B68ED
:1051200083F86A207B6893F84730303BDBB21A463D
:10513000920013445B00DAB27B6893F84830134462
:10514000DBB2303BDAB27B6883F86B207B6893F884
:105150004930303BDBB21A46920013445B00DAB2AE
:105160007B6893F84A301344DBB2303BDAB27B6899
:1051700083F86C20B2E17868FFF7DEFEF0EE407A4B
:105180007B68C3ED167AA9E17B6893F84530532B11
:1051900005D07B6893F84530732B40F094817B6891
:1051A000D3ED167AF1EE677A7B68C3ED167A8AE161
:1051B0007868FFF7C1FEF0EE407A7B68C3ED177A9E
:1051C0008CE17B6893F84530572B05D07B6893F8CA
:1051D0004530772B40F079817B68D3ED177AF1EE7B
:1051E000677A7B68C3ED177A6FE100217868FFF773
:1051F00035FE0346DAB27B6883F869206EE1002150
:105200007868FFF72BFE0346DAB27B6883F86820E4
:1052100064E100217868FFF76BFEF0EE407A7B686E
:10522000C3ED187A5AE100217868FFF761FEF0EECD
:10523000407A7B68C3ED197A50E17B6893F844307B
:10524000022B7ED17B6893F85330023B0F2B5BD847
:1052500001A252F823F000BF995202080953020834
:1052600009530208095302080953020809530208A6
:105270000953020809530208095302080953020896
:10528000095302080953020809530208AD520208E3
:10529000C1520208D552020800217868FFF7DEFDEE
:1052A0000346DAB27B6883F8642017E1002178684E
:1052B000FFF71EFEF0EE407A7B68C3ED187A0DE131
:1052C00000217868FFF714FEF0EE407A7B68C3EDAA
:1052D000167A03E100217868FFF70AFEF0EE407AC3
:1052E0007B68C3ED177AF9E0143504081C3504080F
:1052F000243504082C350408343504083C350408EA
:10530000443504084C3504087B6893F85330022B6D
:1053100040F2DD807B6893F853300E2B00F2D7808B
:1053200000217868FFF79AFD02467B6893F85330B6
:10533000033BD1B27A6813440A4683F8652000BF64
:10534000C5E07B6893F84430032B1BD17B6893F84E
:105350005330022B02D0032B0AD0BFE00021786823
:10536000FFF77CFD0346DAB27B6883F85920B5E08D
:1053700000217868FFF772FD0346DAB27B6883F894
:105380005820ABE07B6893F84430042B40F0A180B8
:105390007B6893F85330023B092B00F29C8001A2FA
:1053A00052F823F0CD530208D7540208D75402080C
:1053B000D7540208D7540208E7530208FB530208E7
:1053C0000F540208895402089D5402087B6893F820
:1053D0004530412B0CBF01230023DBB21A467B680A
:1053E00083F858207AE000217868FFF781FDF0EE1D
:1053F000407A7B68C3ED177A70E000217868FFF788
:1054000077FDF0EE407A7B68C3ED187A66E07B6842
:1054100093F84530303BDBB21A46920013445B00F0
:10542000DAB27B6893F846301344DBB2303BDAB231
:105430007B6883F859207B6893F84730303BDBB2B8
:105440001A46920013445B00DAB27B6893F8483046
:105450001344DBB2303BDAB27B6883F85A207B68B6
:1054600093F84930303BDBB21A46920013445B009C
:10547000DAB27B6893F84A301344DBB2303BDAB2DD
:105480007B6883F85B2029E000217868FFF730FD16
:10549000F0EE407A7B68C3ED197A1FE07B6893F8E1
:1054A0004530572B04D07B6893F84530772B14D1C7
:1054B0007B68D3ED197AF1EE677A7B68C3ED197AD0
:1054C0000BE000BF0AE000BF08E000BF06E000BF3D
:1054D00004E000BF02E000BF00E000BF0123184667
:1054E0000837BD4680BD00BF80B485B000AF78608E
:1054F0007B6893F845302F2B0BD97B6893F84530A8
:10550000392B06D87B6893F845301B01DBB25AB2C1
:1055100026E07B6893F84530602B0DD97B6893F8C3
:1055200045307A2B08D87B6893F84530573BDBB27F
:105530001B01DBB25AB213E07B6893F84530402B75
:105540000DD97B6893F845305A2B08D87B6893F8BF
:105550004530373BDBB21B01DBB25AB200E0002220
:105560007B6893F846302F2B0CD97B6893F8463034
:10557000392B07D87B6893F846305BB203F00F03F2
:105580005BB228E07B6893F84630602B0ED97B68CD
:1055900093F846307A2B09D87B6893F84630573B0E
:1055A000DBB25BB203F00F035BB214E07B6893F8ED
:1055B0004630402B0ED97B6893F846305A2B09D8D9
:1055C0007B6893F84630373BDBB25BB203F00F03E6
:1055D0005BB200E0002313435BB2FB737B6893F87C
:1055E0005530FA7B9A420CBF01230023DBB21846E8
:1055F0001437BD465DF8047B704780B582B000AFBC
:1056000078607B6893F84430012B29D17B689A6DD0
:105610007B681A607B68DA6D7B685A607B681A6EFB
:105620007B689A607B685A6E7B68DA607B6893F867
:1056300068207B681A747B6893F869207B685A74C9
:105640007B6893F86A207B689A747B6893F86B2078
:105650007B68DA747B6893F86C207B681A7555E078
:105660007B6893F84430022B1BD17B689A6D7B6872
:105670009A617B681A6E7B681A627B68DA6D7B6858
:10568000DA617B6893F864207B6883F824207B6868
:1056900003F125007B6865330C2219461AF0AFF937
:1056A00034E07B6893F84430032B06D17B6893F891
:1056B00058207B6883F8312028E07B6893F84430D9
:1056C000042B23D17B681A6E7B689A637B6893F8FE
:1056D00058207B6883F832207B68DA6D7B685A63D8
:1056E0007B685A6E7B68DA637B6893F859207B6825
:1056F00083F840207B6893F85A207B6883F8412028
:105700007B6893F85B207B6883F84220012318466E
:105710000837BD4680BD80B582B000AF78607B6839
:10572000586A7B681B8D012219460AF069FD00BF8B
:105730000837BD4680BD80B582B000AF78607B6819
:10574000586A7B681B8D002219460AF059FD00BF7C
:105750000837BD4680BD0000B0B584B000AF7860AA
:1057600039607A683B6814461D460FCD0FC40FCDD3
:105770000FC40FCD0FC42B6823600023BB7300231D
:10578000FB73504818F04EFE002220214E480AF0CC
:1057900037FD4FF4FA701AF013F8012220214A481D
:1057A0000AF02EFD4FF4FA701AF00AF8474800F09C
:1057B0008FF80346FB73FB7B012B03D14FF47A7008
:1057C00019F0FEFFFB7B012BDBD07868FFF7B3FFFE
:1057D0000121786800F0F9FC06E007F10E031A4693
:1057E0000021786800F080F9BB7B03F00203002BF6
:1057F000F3D07B68DB781946786800F005FC7B689D
:10580000DB681946786800F0FBFD7B681B79194658
:10581000786800F011FE7B689B681946786800F094
:10582000D3FD0121786800F021FC0121786800F0A7
:1058300063FC7B689B781946786800F090FC7B6875
:10584000DB791946786800F03EFB7B681B781946C7
:10585000786800F092FA7B685B781946786800F007
:10586000D4FA7B685B791946786800F05DFB7B6849
:105870009B791946786800F08DFB0021786800F06C
:105880000BFC786800F0F7FA0121786800F003FD5E
:105890000121786800F032FD0121786800F061FD97
:1058A0000121786800F0C4FC786800F02CFA786870
:1058B00000F046FA7868FFF72EFF002318461037ED
:1058C000BD46B0BD543504080004024014840020D5
:1058D00080B586B000AF7860164BFB60FB687B61DB
:1058E00003237A691021786800F063F907F1080250
:1058F00003231021786800F013F90023FB7410E0F3
:10590000FB7C07F11802134413F8102C7B69591C17
:1059100079611B789A4201D0012306E0FB7C0133B8
:10592000FB74FB7C022BEBD9002318461837BD46CD
:1059300080BD00BF60350408B0B58CB002AFF86020
:105940007A603B600B46FB726B461D4697F8383019
:10595000581C431E3B62034619464FF000024FF0AD
:1059600000034FF00004D40044EA5174CB00034616
:1059700019464FF000024FF000034FF00004D4002E
:1059800044EA5174CB0003460733DB08DB00ADEB80
:10599000030D02AB0033FB6197F83830581C431EEF
:1059A000BB61034619464FF000024FF000034FF071
:1059B0000004D40044EA5174CB00034619464FF06A
:1059C00000024FF000034FF00004D40044EA517489
:1059D000CB0003460733DB08DB00ADEB030D02AB66
:1059E00000337B61FB69FA7A1A7000237B62002323
:1059F0007B620FE07B6A7A681A447B6A0133117814
:105A0000FA69D1547A697B6A134400221A707B6A5E
:105A100001337B6297F838307A6A9A42EADBF86899
:105A200000F007FE00BF1B4B1B689B6803F0800360
:105A3000802BF8D0FB685869F9697A6997F8383093
:105A40009BB201339CB2FB689B69009323460FF025
:105A500024FE0346002B01D0012316E000237B62C5
:105A60000AE07B6A5A1C7B6A39680B4479698A5C54
:105A70001A707B6A01337B6297F838307A6A9A42EF
:105A8000EFDBF86800F0C5FD0023AD461846283767
:105A9000BD46B0BDD888002080B586B002AF786022
:105AA0000B46FB7000BF0F4B1B689B6803F0800325
:105AB000802BF8D000BF0B4B1B689B6803F00203E0
:105AC000022BF8D17B6858697B689B6907F10F024C
:105AD000F91C009301230FF0E0FDFB7B1846103703
